:100000000C942A000C9447000C9447000C94470071
:100010000C9447000C9447000C9447000C94470044
:100020000C9447000C9431080C9447000C94470042
:100030000C9447000C948E080C9447000C945B08B9
:100040000C9449000C9447000C9447000C94470012
:100050000C94470011241FBECFE5D8E0DEBFCDBF12
:1000600010E0A0E6B0E0ECE0FCE102C005900D92EB
:10007000AC36B107D9F720E0ACE6B0E001C01D9284
:10008000AE3CB207E1F70E9485030C94040E0C9479
:1000900000001F920F920FB60F9211242F933F93DF
:1000A0008F939F93AF93BF9387B1882351F1809132
:1000B000780090917900A0917A00B0917B00019630
:1000C000A11DB11D8093780090937900A0937A00D0
:1000D000B0937B0024B135B180917400909175008C
:1000E000A0917600B0917700820F931FA11DB11DE2
:1000F0008093740090937500A0937600B09377007E
:1001000029C08091800090918100A0918200B091DF
:1001100083000196A11DB11D809380009093810002
:10012000A0938200B093830024B135B180917C000C
:1001300090917D00A0917E00B0917F00820F931F6F
:10014000A11DB11D80937C0090937D00A0937E0043
:10015000B0937F0097B181E0892787B9BF91AF91B4
:100160009F918F913F912F910F900FBE0F901F90F5
:10017000189542B321E030E0B90102C0660F771F45
:100180008A95E2F7CB01842B82BB089592B321E0DC
:1001900030E002C0220F331F8A95E2F720959223A8
:1001A00092BB089517B88FEE86B980B780BF80E103
:1001B0008ABB81B38C6F81BB0895F8941092800044
:1001C00010928100109282001092830010927C00A5
:1001D00010927D0010927E0010927F0010927800A5
:1001E0001092790010927A0010927B0010927400A5
:1001F000109275001092760010927700789408950E
:1002000019BC18BC1BBC1ABCDC9A2FEF80E792E02B
:10021000215080409040E1F700C0000087E00E943C
:10022000C60083E00E94C60086E00E94B90082E01A
:100230000E94B9000E94DD008091780090917900C1
:10024000A0917A00B0917B00C297A105B10560F43E
:100250008091800090918100A0918200B0918300F4
:10026000C297A105B10540F36091740070917500CB
:1002700080917600909177002091780030917900FC
:1002800040917A0050917B000E94110B30936700DF
:100290002093660060917C0070917D0080917E00CB
:1002A00090917F00209180003091810040918200E8
:1002B000509183000E94110B3093630020936200E1
:1002C000DC982FEF80E792E0215080409040E1F7EA
:1002D00000C000000E94DD008091780090917900BC
:1002E000A0917A00B0917B00C297A105B10560F49E
:1002F0008091800090918100A0918200B091830054
:10030000C297A105B10540F360917400709175002A
:10031000809176009091770020917800309179005B
:1003200040917A0050917B000E94110B3093730032
:100330002093720060917C0070917D0080917E001E
:1003400090917F0020918000309181004091820047
:10035000509183000E94110B30936F0020936E0028
:1003600086E00E94C60082E00E94C60087E00E94EC
:10037000B90083E00E94B9002FEF80E792E021509E
:1003800080409040E1F700C000000E94DD008091B5
:10039000780090917900A0917A00B0917B00C2978B
:1003A000A105B10560F48091800090918100A09139
:1003B0008200B0918300C297A105B10540F360911E
:1003C0007400709175008091760090917700209173
:1003D00078003091790040917A0050917B000E9422
:1003E000110B309371002093700060917C0070912C
:1003F0007D0080917E0090917F002091800030915F
:10040000810040918200509183000E94110B309333
:100410006D0020936C00DC9A2FEF80E792E0215072
:1004200080409040E1F700C000000E94DD00809114
:10043000780090917900A0917A00B0917B00C297EA
:10044000A105B10560F48091800090918100A09198
:100450008200B0918300C297A105B10540F360917D
:1004600074007091750080917600909177002091D2
:1004700078003091790040917A0050917B000E9481
:10048000110B309365002093640060917C007091A3
:100490007D0080917E0090917F00209180003091BE
:1004A000810040918200509183000E94110B309393
:1004B0006100209360000E94DD00DC9887E00E94CC
:1004C000C60083E00E94C60008954F925F926F922B
:1004D0007F928F929F92AF92BF92CF92DF92EF92D4
:1004E000FF920F931F93CF93DF938C01EB01F8944E
:1004F000CB9B3FC060917400709175008091760035
:1005000090917700C0907800D0907900E0907A00C8
:10051000F0907B00A0906400B09065008090700027
:10052000909071000E94F8092B013C01C701B601AF
:100530000E94F8099B01AC01C301B2010E94640949
:100540006B017C01F7FAF094F7F8F094B5016819A3
:10055000790980E090E00E94F8099B01AC01C70195
:10056000B6010E946409F8016083718382839383DA
:100570003AC06091740070917500809176009091FE
:100580007700C0907800D0907900E0907A00F090E9
:100590007B00A0906600B090670080907200909001
:1005A00073000E94F8092B013C01C701B6010E94AB
:1005B000F8099B01AC01C301B2010E9464096B01FF
:1005C0007C01B5016819790980E090E00E94F80982
:1005D0009B01AC01C701B6010E946409F801608368
:1005E000718382839383CA9B3EC060917C0070912B
:1005F0007D0080917E0090917F00C0908000D0901F
:100600008100E0908200F0908300A0906000B090A4
:10061000610000916C0010916D000E94F8092B019F
:100620003C01C701B6010E94F8099B01AC01C3015E
:10063000B2010E9464096B017C01F7FAF094F7F8AB
:10064000F094B501601B710B80E090E00E94F80906
:100650009B01AC01C701B6010E94640968837983DC
:100660008A839B8339C060917C0070917D0080916A
:100670007E0090917F00C0908000D0908100E0903B
:100680008200F0908300A0906200B090630000911F
:100690006E0010916F000E94F8092B013C01C70108
:1006A000B6010E94F8099B01AC01C301B2010E948E
:1006B00064096B017C01B501601B710B80E090E067
:1006C0000E94F8099B01AC01C701B6010E946409B0
:1006D000688379838A839B837894DF91CF911F917C
:1006E0000F91FF90EF90DF90CF90BF90AF909F90D1
:1006F0008F907F906F905F904F9008958FEF87BBA2
:1007000088BB0895809588BB0895CF93DF93CDB7BC
:10071000DEB766970FB6F894DEBF0FBECDBF198265
:100720001A821B821C821D821E821F8218861986D5
:100730001A861B861C861D861E861F86188A0E94A6
:10074000E1080E944E080E947E030E94D200789425
:100750000E94000110E06894332436F8412C512C9B
:1007600032014B8A5C8A6D8A7E8ACE0109969A8B09
:10077000898B6894222427F8111103C0CE9B05C0F1
:1007800057C1113009F054C101C0322CCF9909C0B2
:1007900019BC18BC1BBC1ABC10E06894332436F892
:1007A00047C18091CD00882309F455C0A9ECB0E081
:1007B0008C91803F89F41BBC1ABC19BC18BC86E024
:1007C0000E94B90087E00E94B90082E00E94B9004F
:1007D00083E00E94B9003AC0E9ECF0E08081813FFB
:1007E000A9F5AAECB0E06C91EBECF0E0108170E0C0
:1007F00080E090E00E94F80920E030E048EC52E40C
:100800000E94640920E030E040E85FE30E94FB08BA
:100810006B8B7C8B8D8B9E8B612F70E0660F771FAF
:1008200080E090E00E94F8099B01AC010E94FC0866
:100830002BED3FE049E450E40E94AE0A20E030E0B6
:1008400044EB53E40E9464092B013C01F32DF26058
:100850003F2E1092CD008091C400882309F4E7C098
:10086000BE016B5F7F4FCE0101960E9465020E9420
:10087000DD0020E030E0A901C301B2010E94AA0A14
:10088000181614F520E030E04AE754E4C301B20141
:100890000E94AE0A0E94CC099F938F937F936F931F
:1008A000A9E6B0E0BF93AF93A4E8B0E0BF93AF93E5
:1008B0000E94330B6EE184E890E00E94CD080FB6F1
:1008C000F894DEBF0FBECDBFA980BA80CB80DC809C
:1008D000ED80FE800F8118859A899F93A989AF9337
:1008E000FE013D964F01A30192016B897C898D89A0
:1008F0009E890E941F05CD84DE84EF84F8880F90C6
:100900000F9020E030E0A901C701B6010E94600904
:100910008823C4F482E00E94C60083E00E94B900EC
:100920008D859E85AF85B889BC01CD01905820E0AA
:1009300030E24CE954E40E94AE0A0E94CC0979BD31
:1009400068BD26C020E030E0A901C701B6010E94C1
:10095000AA0A1816ACF482E00E94B90083E00E9453
:10096000C60020E030E24CE954E46D857E858F8539
:1009700098890E94AE0A0E94CC0979BD68BD08C062
:1009800082E00E94C60083E00E94C60019BC18BC29
:10099000C984DA84EB84FC8420E030E0A901C7013B
:1009A000B6010E9460098823C4F486E00E94C60054
:1009B00087E00E94B90089859A85AB85BC85BC011A
:1009C000CD01905820E030E24CE954E40E94AE0A98
:1009D0000E94CC097BBD6ABD26C020E030E0A901A1
:1009E000C701B6010E94AA0A1816ACF486E00E945C
:1009F000B90087E00E94C60020E030E24CE954E4F0
:100A000069857A858B859C850E94AE0A0E94CC09F7
:100A10007BBD6ABD08C086E00E94C60087E00E94D8
:100A2000C6001BBC1ABC1092C40011E001C011E04A
:100A3000832D0E948203F32DFD7F3F2E9DCE2F92AA
:100A40003F924F925F926F927F928F929F92AF925E
:100A5000BF92CF92DF92EF92FF920F931F93CF93AB
:100A6000DF93CDB7DEB760970FB6F894DEBF0FBE49
:100A7000CDBF6D877E878F87988B322E232E4F8335
:100A80005887270138019E828D8220E030E040E8BF
:100A90005FE3C801B7010E94AA0A18169CF020E083
:100AA00030E040E85FEBC801B7010E94600988238D
:100AB0008CF40F2E412C512CF0E86F2EFFEB7F2E83
:100AC000F02D08C00F2E412C512CF0E86F2EFFE3C3
:100AD0007F2EF02D20E030E040E85FE3C601B50155
:100AE0000E94AA0A18169CF020E030E040E85FEB74
:100AF000C601B5010E94600988238CF40F2EA12C39
:100B0000B12CF0E8CF2EFFEBDF2EF02D08C00F2E1A
:100B1000A12CB12CF0E8CF2EFFE3DF2EF02D809139
:100B2000BE009091BF00A091C000B091C100898724
:100B30009A87AB87BC878093BA009093BB00A09341
:100B4000BC00B093BD00A3019201C601B5010E9493
:100B5000FB082AE132E646E850E40E94AE0A6983C7
:100B60007A838B839C836093BE007093BF008093D5
:100B7000C0009093C100A6019501C301B2010E947B
:100B8000FC0820E030E040E05FE30E94AE0A2B0169
:100B90003C016093B6007093B7008093B8009093C7
:100BA000B90029813A814B815C8169857A858B8581
:100BB0009C850E94FC082AE037ED43E25BE30E943B
:100BC000AE0A2091B2003091B3004091B400509130
:100BD000B5000E94FC08E62EF72E082F192F2BEDEA
:100BE0003FE049EC50E40E94AA0A18167CF42BED71
:100BF0003FE049EC50E46E2D7F2D802F912F0E9415
:100C0000FB08E62EF72E082F192F19C020E030E040
:100C1000A9016E2D7F2D802F912F0E9460098823BE
:100C200074F42BED3FE049EC50E46E2D7F2D802FC6
:100C3000912F0E94FC08E62EF72E082F192F8E2DDB
:100C40009F2DA02FB12F8093B2009093B300A0935B
:100C5000B400B093B5002BED3FE049E450E46E2DB5
:100C60007F2D802F912F0E94FC08232D322D4F8144
:100C700058850E94600918167CF02BED3FE049EC86
:100C800050E4632D722D8F8198850E94FB08362ECB
:100C9000272EE82FF92F25C02BED3FE049E450E443
:100CA0006E2D7F2D802F912F0E94FB089B01AC01A0
:100CB000632D722D8F8198850E94600918167CF033
:100CC0002BED3FE049EC50E4632D722D8F81988528
:100CD0000E94FC08362E272EE82FF92F02C0EF8144
:100CE000F8852E2D3F2D402F512F632D722D8E2FE5
:100CF0009F2F0E94FB086B017C016093AE007093F4
:100D0000AF008093B0009093B10028EE31EB49E73B
:100D100050ECC301B2010E94AE0A2B013C0124EF4A
:100D200038ED4CE950E46D857E858F8598890E9469
:100D3000AE0A9B01AC01C301B2010E94FC08662E01
:100D4000772EA82EB92E21E237EA44E95FE3C701E6
:100D5000B6010E94AE0A6B017C0128E137EA44E14A
:100D60005FE369817A818B819C810E94AE0A9B013D
:100D7000AC01C701B6010E94FB08862E972E89831D
:100D80009F8320E030E0A9010E94AA0A882324F072
:100D9000EE24E394F12C03C0EE24EA94FE2CF092AE
:100DA000A500E092A40020E030E0A901662D772D97
:100DB0008A2D9B2D0E94AA0A88231CF001E010E0D6
:100DC00002C00FEF1FEF1093A3000093A200B70122
:100DD000882777FD8095982F0E94FA09262E372EB6
:100DE000482E592E262F372F482F592F682D792D11
:100DF00089819F810E94AE0A6B017C0120E030E076
:100E000040E85FE30E94AA0A18167CF02DEC3CEC47
:100E10004CE45DE3C701B6010E946009181654F066
:100E2000812C912CE12CF12C07C0822C932CE42CEA
:100E3000F52C02C0E980FF80882D992DAE2DBF2DA5
:100E40008093A6009093A700A093A800B093A90058
:100E5000B801882777FD8095982F0E94FA09C62E41
:100E6000D72E082F192F262F372F482F592F662DB1
:100E7000772D8A2D9B2D0E94AE0A20E030E040E8BD
:100E80005FE30E94AA0A181624F46C2C7D2CA02E75
:100E9000B12E222D332D442D552D682D792D8E2DDB
:100EA0009F2D0E94AE0A9B01AC0160E070E080E8DB
:100EB0009FE30E94FB081B012C012C2D3D2D402F90
:100EC000512F662D772D8A2D9B2D0E94AE0AA201EF
:100ED00091010E94AA0A181664F4A20191016C2DD6
:100EE0007D2D802F912F0E94AE0A662E772EA82E80
:100EF000B92E862D972DAA2DBB2D8093AA009093F5
:100F0000AB00A093AC00B093AD00262D372D4A2D39
:100F10005B2D682D792D8E2D9F2D0E94FC08ADA193
:100F2000BEA16D937D938D939C931397282D392D9E
:100F30004E2D5F2D662D772D8A2D9B2D0E94FB084F
:100F4000ED81FE816083718382839383ADA1BEA115
:100F5000EC901196FC90119712960C9112971396A3
:100F60001C9124EA30E74DE75FE36E2D7F2D802F43
:100F7000912F0E94AA0A18168CF024EA30E74DE758
:100F80005FEB6E2D7F2D802F912F0E9460098823AB
:100F900054F434EA20E70DE71FEB07C034EA20E7FA
:100FA0000DE71FE302C03E2D2F2D832F922FA02F80
:100FB000B12FEDA1FEA180839183A283B383AD8184
:100FC000BE81EC901196FC90119712960C9112979D
:100FD00013961C9124EA30E74DE75FE36E2D7F2DD9
:100FE000802F912F0E94AA0A18168CF024EA30E76D
:100FF0004DE75FEB6E2D7F2D802F912F0E946009B2
:10100000882354F434EA20E70DE71FEB07C034EAE5
:1010100020E70DE71FE302C03E2D2F2D832F922FD7
:10102000A02FB12FED81FE8180839183A283B383B2
:1010300060960FB6F894DEBF0FBECDBFDF91CF91A3
:101040001F910F91FF90EF90DF90CF90BF90AF90E6
:101050009F908F907F906F905F904F903F902F90D8
:1010600008951F920F920FB60F9211248F9381E073
:101070008093C4008091C2008F5F8093C2008091F2
:10108000C2008A3029F481E08093C3001092C2002C
:101090008F910F900FBE0F901F90189584E087BD21
:1010A00091EE96BD89BF92EA9FBD9BE59EBD9BE1F7
:1010B0009EBD89BF08951F920F920FB60F92112403
:1010C0008F939F93EF93FF938091C6008823A9F09D
:1010D000E091C700F091C80080818CB98091C70071
:1010E0009091C80001969093C8008093C7008091AA
:1010F000C60081508093C60008C08FEF8CB9109253
:10110000CC0081E0809368005698FF91EF919F9109
:101110008F910F900FBE0F901F9018951F920F92F6
:101120000FB60F9211248F939F93EF93FF938CB17F
:10113000A89590E1980F923070F41092C500E0915C
:10114000C500F0E0E753FF4F80839091C5009F5F9B
:101150009093C5000BC0E091C500F0E0E753FF4F4E
:1011600080839091C5009F5F9093C5009091C500CA
:10117000933029F491E09093CD001092C5009091A6
:101180006800913009F48CB9FF91EF919F918F9194
:101190000F900FBE0F901F901895109268005E9AE6
:1011A000569A2091CC0021110BC09093C8008093D7
:1011B000C7006093C60081E08093CC008EEF8CB9AD
:1011C000089581E0809368001092CD001092C600CF
:1011D0001092C50086E880BD88ED8AB910BC87E60C
:1011E00089B92EE088E190E00FB6F894A89581BD0A
:1011F0000FBE21BD08955058BB27AA270ED070C13D
:1012000061D130F066D120F031F49F3F11F41EF42B
:1012100056C10EF4E095E7FB4CC1E92F72D180F383
:10122000BA17620773078407950718F071F49EF5E3
:101230008AC10EF4E0950B2EBA2FA02D0B01B90137
:1012400090010C01CA01A0011124FF27591B99F03C
:10125000593F50F4503E68F11A16F040A22F232F48
:10126000342F4427585FF3CF469537952795A79598
:10127000F0405395C9F77EF41F16BA0B620B730B3F
:10128000840BBAF09150A1F0FF0FBB1F661F771FB0
:10129000881FC2F70EC0BA0F621F731F841F48F465
:1012A000879577956795B795F7959E3F08F0B3CFEB
:1012B0009395880F08F09927EE0F979587950895D5
:1012C000D4D008F481E008950CD00AC102D140F0D6
:1012D000F9D030F021F45F3F19F0EBC0511134C167
:1012E000EEC00FD198F39923C9F35523B1F3951BA1
:1012F000550BBB27AA2762177307840738F09F5F37
:101300005F4F220F331F441FAA1FA9F333D00E2EA5
:101310003AF0E0E830D091505040E695001CCAF712
:1013200029D0FE2F27D0660F771F881FBB1F2617D7
:1013300037074807AB07B0E809F0BB0B802DBF01AA
:10134000FF2793585F4F2AF09E3F510568F0B1C0C8
:10135000FBC05F3FECF3983EDCF38695779567958D
:10136000B795F7959F5FC9F7880F911D969587955B
:1013700097F90895E1E0660F771F881FBB1F62177A
:1013800073078407BA0720F0621B730B840BBA0B38
:10139000EE1F88F7E0950895BCD088F09F5790F035
:1013A000B92F9927B751A0F0D1F0660F771F881F8A
:1013B000991F1AF0BA95C9F712C0B13081F0C3D0A5
:1013C000B1E00895C0C0672F782F8827B85F39F043
:1013D000B93FCCF3869577956795B395D9F73EF4E9
:1013E00090958095709561957F4F8F4F9F4F089591
:1013F000E89409C097FB3EF49095809570956195AF
:101400007F4F8F4F9F4F9923A9F0F92F96E9BB2764
:101410009395F695879577956795B795F111F8CFE0
:10142000FAF4BB0F11F460FF1BC06F5F7F4F8F4F4B
:101430009F4F16C0882311F096E911C0772321F041
:101440009EE8872F762F05C0662371F096E8862FD9
:1014500070E060E02AF09A95660F771F881FDAF730
:10146000880F9695879597F90895990F0008550F5D
:10147000AA0BE0E8FEEF16161706E807F907C0F01A
:1014800012161306E407F50798F0621B730B840B22
:10149000950B39F40A2661F0232B242B252B21F4FC
:1014A00008950A2609F4A140A6958FEF811D811D9C
:1014B000089597F99F6780E870E060E008959FEFD6
:1014C00080EC089500240A941616170618060906DB
:1014D000089500240A9412161306140605060895AA
:1014E000092E0394000C11F4882352F0BB0F40F432
:1014F000BF2B11F460FF04C06F5F7F4F8F4F9F4F72
:10150000089557FD9058440F551F59F05F3F71F0F3
:101510004795880F97FB991F61F09F3F79F087955A
:101520000895121613061406551FF2CF4695F1DFE3
:1015300008C0161617061806991FF1CF8695710573
:10154000610508940895E894BB2766277727CB01A7
:1015500097F908958ADF08F48FEF08950BD0C0CF74
:10156000B1DF28F0B6DF18F0952309F0A2CFA7CF9E
:101570001124EACFC6DFA0F3959FD1F3950F50E079
:10158000551F629FF001729FBB27F00DB11D639F35
:10159000AA27F00DB11DAA1F649F6627B00DA11DDB
:1015A000661F829F2227B00DA11D621F739FB00D81
:1015B000A11D621F839FA00D611D221F749F3327F1
:1015C000A00D611D231F849F600D211D822F762F8A
:1015D0006A2F11249F5750408AF0E1F088234AF087
:1015E000EE0FFF1FBB1F661F771F881F91505040D3
:1015F000A9F79E3F510570F05CCFA6CF5F3FECF39B
:10160000983EDCF3869577956795B795F795E795BE
:101610009F5FC1F7FE2B880F911D9695879597F9CF
:101620000895A1E21A2EAA1BBB1BFD010DC0AA1F23
:10163000BB1FEE1FFF1FA217B307E407F50720F03B
:10164000A21BB30BE40BF50B661F771F881F991FB6
:101650001A9469F760957095809590959B01AC01FF
:10166000BD01CF010895AEE0B0E0E9E3FBE00C94EA
:10167000DB0D0D891E8986E08C831A8309838FEF29
:101680009FE79E838D83AE01475E5F4F6F89788DA4
:10169000CE0101960E94550BEF81F885E00FF11FF6
:1016A00010822E96E4E00C94F70DACE0B0E0EBE590
:1016B000FBE00C94CD0D7C016B018A01FC011782CB
:1016C0001682838181FFBDC1CE0101964C01F701D5
:1016D0009381F60193FD859193FF81916F0188239A
:1016E00009F4ABC1853239F493FD859193FF819163
:1016F0006F01853229F4B70190E00E943D0DE7CFDC
:10170000512C312C20E02032A0F48B3269F030F4DF
:10171000803259F0833269F420612CC08D3239F067
:10172000803339F4216026C02260246023C0286001
:1017300021C027FD27C030ED380F3A3078F426FF5E
:1017400006C0FAE05F9E300D1124532E13C08AE0CC
:10175000389E300D1124332E20620CC08E3221F4BD
:1017600026FD6BC1206406C08C3611F4206802C0CF
:10177000883641F4F60193FD859193FF81916F01C5
:101780008111C1CF982F9F7D9554933028F40C5F21
:101790001F4FFFE3F9830DC0833631F0833771F0BB
:1017A000833509F05BC022C0F801808189830E5F18
:1017B0001F4F44244394512C540115C03801F2E0CA
:1017C0006F0E711CF801A080B18026FF03C0652D4B
:1017D00070E002C06FEF7FEFC5012C870E94320DD1
:1017E0002C0183012C852F77222E17C03801F2E0BF
:1017F0006F0E711CF801A080B18026FF03C0652D1B
:1018000070E002C06FEF7FEFC5012C870E94270DAB
:101810002C012C852068222E830123FC1BC0832DE4
:1018200090E048165906B0F4B70180E290E00E94BB
:101830003D0D3A94F4CFF50127FC859127FE819167
:101840005F01B70190E00E943D0D31103A94F1E044
:101850004F1A51084114510471F7E5C0843611F054
:10186000893639F5F80127FF07C0608171818281CF
:1018700093810C5F1F4F08C060817181882777FDBD
:101880008095982F0E5F1F4F2F76B22E97FF09C0BD
:1018900090958095709561957F4F8F4F9F4F2068F1
:1018A000B22E2AE030E0A4010E946F0DA82EA818E5
:1018B00044C0853729F42F7EB22E2AE030E025C0BF
:1018C000F22FF97FBF2E8F36C1F018F4883579F0EA
:1018D000B4C0803719F0883721F0AFC02F2F2061B6
:1018E000B22EB4FE0DC08B2D8460B82E09C024FF2B
:1018F0000AC09F2F9660B92E06C028E030E005C0D0
:1019000020E130E002C020E132E0F801B7FE07C07C
:1019100060817181828193810C5F1F4F06C060815D
:10192000718180E090E00E5F1F4FA4010E946F0D57
:10193000A82EA818FB2DFF77BF2EB6FE0BC02B2DAF
:101940002E7FA51450F4B4FE0AC0B2FC08C02B2DA3
:101950002E7E05C07A2C2B2D03C07A2C01C0752C4D
:1019600024FF0DC0FE01EA0DF11D8081803311F4CA
:10197000297E09C022FF06C07394739404C0822F8D
:10198000867809F0739423FD13C020FF06C05A2CFB
:10199000731418F4530C5718732C731468F4B701AC
:1019A00080E290E02C870E943D0D73942C85F5CF4A
:1019B000731410F4371801C0312C24FF12C0B70182
:1019C00080E390E02C870E943D0D2C8522FF17C0FC
:1019D00021FF03C088E590E002C088E790E0B701EE
:1019E0000CC0822F867859F021FD02C080E201C030
:1019F0008BE227FD8DE2B70190E00E943D0DA5141A
:101A000038F4B70180E390E00E943D0D5A94F7CF7F
:101A1000AA94F401EA0DF11D8081B70190E00E94C3
:101A20003D0DA110F5CF332009F451CEB70180E26E
:101A300090E00E943D0D3A94F6CFF70186819781A0
:101A400002C08FEF9FEF2C96E2E10C94E90DFC01B0
:101A50000590615070400110D8F7809590958E0FD9
:101A60009F1F0895FC016150704001900110D8F74C
:101A7000809590958E0F9F1F08950F931F93CF937E
:101A8000DF93182F092FEB018B8181FD03C08FEFAE
:101A90009FEF20C082FF10C04E815F812C813D816D
:101AA000421753077CF4E881F9819F012F5F3F4F74
:101AB00039832883108306C0E885F985812F09952D
:101AC000892B29F72E813F812F5F3F4F3F832E8344
:101AD000812F902FDF91CF911F910F910895FA01DF
:101AE000AA27283051F1203181F1E8946F936E7F5D
:101AF0006E5F7F4F8F4F9F4FAF4FB1E03ED0B4E04E
:101B00003CD0670F781F891F9A1FA11D680F791F8E
:101B10008A1F911DA11D6A0F711D811D911DA11D9F
:101B200020D009F468943F912AE0269F11243019AF
:101B3000305D3193DEF6CF010895462F4770405D4A
:101B40004193B3E00FD0C9F7F6CF462F4F70405DF9
:101B50004A3318F0495D31FD4052419302D0A9F754
:101B6000EACFB4E0A6959795879577956795BA954E
:101B7000C9F700976105710508959B01AC010A2E14
:101B800006945795479537952795BA95C9F7620FEB
:101B9000731F841F951FA01D08952F923F924F928F
:101BA0005F926F927F928F929F92AF92BF92CF92ED
:101BB000DF92EF92FF920F931F93CF93DF93CDB7F6
:101BC000DEB7CA1BDB0B0FB6F894DEBF0FBECDBF6E
:101BD00009942A88398848885F846E847D848C843F
:101BE0009B84AA84B984C884DF80EE80FD800C8148
:101BF0001B81AA81B981CE0FD11D0FB6F894DEBF2B
:0C1C00000FBECDBFED010895F894FFCF9A
:0C1C0C00FF03FF03FF03FF03012564003A
:00000001FF
