:100000000C942A000C9447000C9447000C94470071
:100010000C9447000C9447000C9447000C94470044
:100020000C9447000C9499000C9447000C944700E2
:100030000C9447000C94EA000C9447000C94BE000A
:100040000C9449000C9447000C9447000C94470012
:100050000C94470011241FBECFE5D8E0DEBFCDBF12
:1000600010E0A0E6B0E0E2EAF2E002C005900D92F6
:10007000A236B107D9F720E0A2E6B0E001C01D9298
:10008000A837B207E1F70E9489000C944F010C9445
:1000900000001F920F920FB60F9211242F933F93DF
:1000A0008F939F9387B1882391F0809164008F5F35
:1000B0008093640084B195B1209162003091630017
:1000C000820F931F909363008093620011C0809110
:1000D00067008F5F8093670084B195B120916500C0
:1000E00030916600820F931F9093660080936500A5
:1000F00097B181E0892787B99F918F913F912F9187
:100100000F900FBE0F901F9018958FEF87BB88BB85
:1001100008950E9437010E94B4000E9485007894DF
:100120008091690080916A0080916B0080916800E5
:10013000F7CF1F920F920FB60F9211248F9381E089
:1001400080936E0080916C008F5F80936C00809133
:100150006C008A3019F481E080936D008F910F90CC
:100160000FBE0F901F90189584E087BD91EE96BD4D
:1001700092EA9FBD9BE19EBD89BF08951F920F9299
:100180000FB60F9211248F93EF93FF938091750018
:10019000882381F0E0917600F091770081918CB90D
:1001A000F0937700E0937600809175008150809302
:1001B000750008C08FEF8CB910926F0081E08093BA
:1001C00060005698FF91EF918F910F900FBE0F90A6
:1001D0001F9018951F920F920FB60F9211248F93B4
:1001E0009F93EF93FF938CB1A895803F79F4909102
:1001F000740091111DC0E0917400F0E0EF58FF4FC2
:1002000090EF908391E0909370001DC0813F81F446
:100210009091740091110CC0E0917400F0E0EF58DF
:10022000FF4F9081909174009F5F909374000BC07A
:10023000E0917400F0E0EF58FF4F808390917400DC
:100240009F5F9093740090917400933011F410921A
:10025000740090916000913009F48CB9FF91EF9196
:100260009F918F910F900FBE0F901F90189581E076
:1002700080936000109275001092740086E880BD33
:1002800088ED8AB910BC87E689B92EE088E190E054
:100290000FB6F894A89581BD0FBE21BD0895F894BE
:0202A000FFCF8E
:0202A200010059
:00000001FF
