:100000000C942A000C9447000C9447000C94470071
:100010000C9447000C9447000C9447000C94470044
:100020000C9447000C9447000C9447000C94470034
:100030000C9447000C94FE000C9447000C94C100F3
:100040000C9449000C9447000C9447000C94470012
:100050000C94470011241FBECFE5D8E0DEBFCDBF12
:1000600010E0A0E6B0E0EEECF8E002C005900D92E2
:10007000A836B107D9F720E0A8E6B0E001C01D928C
:10008000AD37B207E1F70E9485000C9465040C942B
:1000900000001F920F920FB60F9211242F933F93DF
:1000A0008F939F9387B1882391F080916A008F5F2F
:1000B00080936A0084B195B1209168003091690005
:1000C000820F931F909369008093680011C0809104
:1000D0006D008F5F80936D0084B195B120916B00AE
:1000E00030916C00820F931F90936C0080936B0093
:1000F00097B181E0892787B99F918F913F912F9187
:100100000F900FBE0F901F901895CF93DF9300D0E4
:1001100000D01F92CDB7DEB78E010F5F1F4F85E075
:10012000F80111928A95E9F78FEF87BB18BA0E9400
:100130008801789440917B0050917C002091790057
:1001400030917A00809177009091780055275F93E5
:100150004F9333273F932F9399279F938F9380E655
:1001600090E09F938F931F930F930E94900163E001
:10017000C8010E946C010FB6F894DEBF0FBECDBF60
:10018000FFCF1F920F920FB60F9211248F939F9360
:10019000EF93FF9380917400882381F0E0917500C4
:1001A000F091760081918CB9F0937600E093750020
:1001B0008091740081508093740017C080916E000C
:1001C00090916F00019759F480917400811107C0DC
:1001D0008FEF8CB910926F0010926E0006C081E014
:1001E00090E09093710080937000FF91EF919F9148
:1001F0008F910F900FBE0F901F9018951F920F9226
:100200000FB60F9211242F938F939F93EF93FF9329
:100210002CB18091720090917300892BD1F4822FC0
:10022000805F8230B0F4E0917200F0917300822F11
:1002300090E0EE0FFF1FE958FF4F9183808380917C
:1002400072009091730001969093730080937200F6
:1002500032C080917200909173000197B1F4E091E7
:100260007200F0917300822F90E0EE0FFF1FE958AB
:10027000FF4F91838083809172009091730001966B
:10028000909373008093720016C0809172009091D9
:100290007300029781F4E0917200F0917300822F55
:1002A00090E0EE0FFF1FE958FF4F9183808310927B
:1002B000730010927200809170009091710001970C
:1002C00009F42CB9FF91EF919F918F912F910F908D
:1002D0000FBE0F901F901895109271001092700031
:1002E0004FB7F89420916E0030916F00232B71F47A
:1002F0009093760080937500609374008EEF8CB9B4
:1003000081E090E090936F0080936E004FBF08955E
:1003100086E880BD88ED8AB910BC87E689B9089562
:10032000AEE0B0E0E6E9F1E00C943C040D891E89F2
:1003300086E08C831A8309838FEF9FE79E838D83EA
:10034000CE014996AC016F89788DCE0101960E944D
:10035000B201EF81F885E00FF11F10822E96E4E0E4
:100360000C945804ACE0B0E0E8EBF1E00C942E04FF
:100370007C016B018A01FC0117821682838181FF57
:10038000C6C188248394912C8C0E9D1EF701938105
:10039000F60193FD859193FF81916F01882309F404
:1003A000B2C1853239F493FD859193FF81916F013C
:1003B000853229F4B70190E00E94A403E7CF512CC5
:1003C000312C20E02032A8F48B3261F028F4803206
:1003D00051F0833271F40BC08D3239F0803349F41F
:1003E000216028C02260246025C0286023C02061CD
:1003F00021C027FD27C0382F30533A3078F426FF2C
:1004000006C0FAE05F9E300D1124532E13C08AE01F
:10041000389E300D1124332E20620CC08E3221F410
:1004200026FD71C1206406C08C3611F4206802C01C
:10043000883641F4F60193FD859193FF81916F0118
:100440008111C0CF982F9554933018F0905293306B
:1004500028F40C5F1F4FFFE3F9830DC0833631F0A2
:10046000833771F0833509F05EC023C0F8018081C5
:1004700089830E5F1F4F44244394512C540115C0AF
:100480003801F2E06F0E711CF801A080B18026FFE8
:1004900003C0652D70E002C06FEF7FEFC5012C87B0
:1004A0000E9499032C0183012C856FE7262E2222BE
:1004B00018C03801F2E06F0E711CF801A080B18005
:1004C00026FF03C0652D70E002C06FEF7FEFC5010E
:1004D0002C870E948E032C012C8550E8252E222A81
:1004E000830123FC1CC006C0B70180E290E00E949B
:1004F000A4033A94832D90E048165906A8F30FC040
:10050000F50127FC859127FE81915F01B70190E0FD
:100510000E94A40331103A94F1E04F1A510841149B
:10052000510471F7EDC0843611F0893641F5F801B8
:1005300027FF07C060817181828193810C5F1F4F0B
:1005400008C060817181882777FD8095982F0E5FA4
:100550001F4F4FE6B42EB22297FF09C090958095A9
:10056000709561957F4F8F4F9F4FF0E8BF2A2AE02B
:1005700030E0A4010E94D003A82EA81843C08537FC
:1005800031F43FEEB32EB2222AE030E024C099EFDE
:10059000B92EB2228F36B9F020F4883509F0B3C0F5
:1005A0000DC0803721F0883709F0ADC002C020E1CE
:1005B000B22AB4FE0BC084E0B82A08C024FF09C0E8
:1005C000E6E0BE2A06C028E030E005C020E130E0C9
:1005D00002C020E132E0F801B7FE07C060817181FE
:1005E000828193810C5F1F4F06C06081718180E022
:1005F00090E00E5F1F4FA4010E94D003A82EA81800
:10060000FFE7BF22B6FE0BC02B2D2E7FA51450F4A2
:10061000B4FE0AC0B2FC08C02B2D2E7E05C07A2C79
:100620002B2D03C07A2C01C0752C24FF0DC0FE01B8
:10063000EA0DF11D8081803311F4297E09C022FF6B
:1006400006C07394739404C0822F867809F0739463
:1006500023FD14C020FF0FC05A2C731460F4530CF8
:100660005718732C08C0B70180E290E02C870E94D5
:10067000A40373942C857314B0F304C0731410F4A2
:10068000371801C0312C24FF12C0B70180E390E07D
:100690002C870E94A4032C8522FF1EC021FF03C0CB
:1006A00088E590E002C088E790E0B7010CC0822F97
:1006B000867891F021FD02C080E201C08BE227FD27
:1006C0008DE2B70190E00E94A40306C0B70180E369
:1006D00090E00E94A4035A94A514C0F3AA94F401D4
:1006E000EA0DF11DB701808190E00E94A403A110E2
:1006F000F5CF06C0B70180E290E00E94A4033A94CF
:100700003110F8CF43CEF7012681378102C02FEF99
:100710003FEFC9012C96E2E10C944A04FC010590DC
:10072000615070400110D8F7809590958E0F9F1FF3
:100730000895FC016150704001900110D8F7809538
:1007400090958E0F9F1F08950F931F93CF93DF9364
:100750008C01EB018B8181FD03C00FEF1FEF1AC0ED
:1007600082FF0DC02E813F818C819D812817390722
:1007700064F4E881F9810193F983E88306C0E88590
:10078000F985802F0995892B41F78E819F810196EC
:100790009F838E83C801DF91CF911F910F910895A0
:1007A000FA01AA27283051F1203181F1E8946F93A2
:1007B0006E7F6E5F7F4F8F4F9F4FAF4FB1E03ED048
:1007C000B4E03CD0670F781F891F9A1FA11D680FE6
:1007D000791F8A1F911DA11D6A0F711D811D911D19
:1007E000A11D20D009F468943F912AE0269F11248E
:1007F0003019305D3193DEF6CF010895462F4770F2
:10080000405D4193B3E00FD0C9F7F6CF462F4F704C
:10081000405D4A3318F0495D31FD4052419302D0AA
:10082000A9F7EACFB4E0A695979587957795679550
:10083000BA95C9F700976105710508959B01AC0150
:100840000A2E06945795479537952795BA95C9F777
:10085000620F731F841F951FA01D08952F923F9252
:100860004F925F926F927F928F929F92AF92BF92C0
:10087000CF92DF92EF92FF920F931F93CF93DF936C
:10088000CDB7DEB7CA1BDB0B0FB6F894DEBF0FBEC9
:10089000CDBF09942A88398848885F846E847D8416
:1008A0008C849B84AA84B984C884DF80EE80FD8018
:1008B0000C811B81AA81B981CE0FD11D0FB6F8948E
:0E08C000DEBF0FBECDBFED010895F894FFCF4F
:0808CE00256425642564000087
:00000001FF
