S00E0000454C453534322E73726563A5
S11300000C942A000C9447000C9447000C9447006D
S11300100C9447000C9447000C9447000C94470040
S11300200C9447000C94B1080C9447000C944700BE
S11300300C9447000C94210A0C9447000C94F50985
S11300400C9449000C9447000C9447000C9420092C
S11300500C94470011241FBECFE5D8E0DEBFCDBF0E
S113006010E0A0E6B0E0E4E8F9E102C005900D92EA
S1130070AA36B107D9F721E0AAE6B0E001C01D9283
S1130080A331B207E1F70E9485030C94C00C0C94D1
S113009000001F920F920FB60F9211242F933F93DB
S11300A08F939F93AF93BF9387B1882351F180912E
S11300B0760090917700A0917800B0917900019634
S11300C0A11DB11D8093760090937700A0937800D2
S11300D0B093790024B135B180917200909173008E
S11300E0A0917400B0917500820F931FA11DB11DE2
S11300F08093720090937300A0937400B093750082
S113010029C080917E0090917F00A0918000B091E1
S113011081000196A11DB11D80937E0090937F0004
S1130120A0938000B093810024B135B180917A000E
S113013090917B00A0917C00B0917D00820F931F71
S1130140A11DB11D80937A0090937B00A0937C0045
S1130150B0937D0097B181E0892787B9BF91AF91B2
S11301609F918F913F912F910F900FBE0F901F90F1
S1130170189542B321E030E0B90102C0660F771F41
S11301808A95E2F7CB01842B82BB089592B321E0D8
S113019030E002C0220F331F8A95E2F720959223A4
S11301A092BB089517B88FEE86B980B780BF80E1FF
S11301B08ABB81B38C6F81BB0895F89410927E0042
S11301C010927F00109280001092810010927A00A9
S11301D010927B0010927C0010927D0010927600A9
S11301E010927700109278001092790010927200A9
S11301F01092730010927400109275007894089510
S113020019BC18BC1BBC1ABCDC9A2FEF80E792E027
S1130210215080409040E1F700C0000087E00E9438
S1130220C60083E00E94C60086E00E94B90082E016
S11302300E94B9000E94DD008091760090917700C1
S1130240A0917800B0917900C297A105B10560F43E
S113025080917E0090917F00A0918000B0918100F8
S1130260C297A105B10540F36091720070917300CB
S11302708091740090917500209176003091770000
S113028040917800509179000E949E0C3093670051
S11302902093660060917A0070917B0080917C00CD
S11302A090917D0020917E0030917F0040918000EC
S11302B0509181000E949E0C309363002093620051
S11302C0DC982FEF80E792E0215080409040E1F7E6
S11302D000C000000E94DD008091760090917700BC
S11302E0A0917800B0917900C297A105B10560F49E
S11302F080917E0090917F00A0918000B091810058
S1130300C297A105B10540F360917200709173002A
S1130310809174009091750020917600309177005F
S113032040917800509179000E949E0C30937100A6
S11303302093700060917A0070917B0080917C0022
S113034090917D0020917E0030917F00409180004B
S1130350509181000E949E0C30936D0020936C009C
S113036086E00E94C60082E00E94C60087E00E94E8
S1130370B90083E00E94B9002FEF80E792E021509A
S113038080409040E1F700C000000E94DD008091B1
S1130390760090917700A0917800B0917900C2978F
S11303A0A105B10560F480917E0090917F00A09139
S11303B08000B0918100C297A105B10540F360911E
S11303C07200709173008091740090917500209177
S11303D076003091770040917800509179000E9426
S11303E09E0C30936F0020936E0060917A007091A0
S11303F07B0080917C0090917D0020917E00309163
S11304007F0040918000509181000E949E0C3093A7
S11304106B0020936A00DC9A2FEF80E792E0215072
S113042080409040E1F700C000000E94DD00809110
S1130430760090917700A0917800B0917900C297EE
S1130440A105B10560F480917E0090917F00A09198
S11304508000B0918100C297A105B10540F360917D
S113046072007091730080917400909175002091D6
S113047076003091770040917800509179000E9485
S11304809E0C309365002093640060917A00709113
S11304907B0080917C0090917D0020917E003091C2
S11304A07F0040918000509181000E949E0C309307
S11304B06100209360000E94DD00DC9887E00E94C8
S11304C0C60083E00E94C60008954F925F926F9227
S11304D07F928F929F92AF92BF92CF92DF92EF92D0
S11304E0FF920F931F93CF93DF938C01EB01F8944A
S11304F0CB9B3FC060917200709173008091740037
S1130500909175004090760050907700609078004C
S113051070907900C0906400D0906500E0906E0007
S1130520F0906F000E94850B4B015C01C301B20186
S11305300E94850B9B01AC01C501B4010E94F10A24
S11305404B015C01B7FAB094B7F8B094B6016E19D8
S11305507F0980E090E00E94850B9B01AC01C501FE
S1130560B4010E94F10AF80160837183828393834A
S11305703AC0609172007091730080917400909100
S113058075004090760050907700609078007090ED
S11305907900C0906600D0906700E0907000F09001
S11305A071000E94850B4B015C01C301B2010E94E2
S11305B0850B9B01AC01C501B4010E94F10A2B011A
S11305C03C01B6016E197F0980E090E00E94850B22
S11305D09B01AC01C301B2010E94F10AF8016083DE
S11305E0718382839383CA9B3EC060917A00709129
S11305F07B0080917C0090917D00C0907E00D09023
S11306007F00E0908000F0908100A0906000B090A6
S1130610610000916A0010916B000E94850B2B0110
S11306203C01C701B6010E94850B9B01AC01C301CB
S1130630B2010E94F10A6B017C01F7FAF094F7F819
S1130640F094B501601B710B80E090E00E94850B73
S11306509B01AC01C701B6010E94F10A688379834A
S11306608A839B8339C060917A0070917B0080916A
S11306707C0090917D00C0907E00D0907F00E0903F
S11306808000F0908100A0906200B090630000911F
S11306906C0010916D000E94850B2B013C01C70179
S11306A0B6010E94850B9B01AC01C301B2010E94FB
S11306B0F10A6B017C01B501601B710B80E090E0D5
S11306C00E94850B9B01AC01C701B6010E94F10A8F
S11306D0688379838A839B837894DF91CF911F9178
S11306E00F91FF90EF90DF90CF90BF90AF909F90CD
S11306F08F907F906F905F904F9008958FEF87BB9E
S113070088BB0895809588BB0895CF93DF93CDB7B8
S1130710DEB76C970FB6F894DEBF0FBECDBF19825B
S11307201A821B821C821D821E821F8218861986D1
S11307301A861B861C861D861E861F86188A198AA1
S11307401A8A0E946E0A0E94CE080E947E030E94AA
S1130750DB080E94D2004AE061E080EE0E94C409F6
S11307604AE061E082EE0E94C4094DE262E080EE5C
S11307700E94C4094DE262E082EE0E94C4090E9414
S1130780000110E0412C6894772476F8198E1A8EB3
S11307901B8E1C8E1D8A1E8A1F8A188E5524539404
S11307A0CE010B969C8B8B8B0F2EF8EA2F2EF0E04C
S11307B03F2EF02D6894662467F8111105C0CE9978
S11307C079C17894762C03C0113009F073C1CF99A4
S11307D00AC019BC18BC1BBC1ABCF89410E068947D
S11307E0772476F867C18091AC00882309F454C05B
S11307F0F1018081803F89F41BBC1ABC19BC18BC70
S113080086E00E94B90087E00E94B90082E00E945D
S1130810B90083E00E94B9003BC0F1018081813FAF
S1130820B9F5E9EAF0E06081EAEAF0E0108170E00D
S113083080E090E00E94850B20E030E048EC52E438
S11308400E94880A20E030E048EC52E40E94F10A59
S11308506D8B7E8B8F8B988F612F70E0660F771F67
S113086080E090E00E94850B9B01AC010E94890A04
S11308702BED3FE049E450E40E943B0C20E030E0E3
S113088044EB53E40E94F10A698F7A8F8B8F9C8F1B
S1130890F2E07F2A1092AC008091A3008823D1F16A
S11308A081E048121BC041E560E080EE0E94C4096B
S11308B0AE014E5F5F4F62E083EE0E94D809AE0145
S11308C04F5F5F4F63E083EE0E94D809872D837FDB
S11308D06894772475F8782A412C1AC041E560E0C1
S11308E082EE0E94C409AE014E5F5F4F62E081EE6A
S11308F00E94D809AE014F5F5F4F63E081EE0E9412
S1130900D809872D8F7C6894772473F8782A452C2E
S11309101092A3008091A400882309F4CAC0BE01E8
S1130920695F7F4FCE0103960E9465020E94DD003D
S1130930AB80BC80CD80DE80EF80F88409851A8589
S11309409C899F93EB89EF930F2EFFE08F2E912CC0
S1130950F02D8C0E9D1E798D6A8D9B8D8C8D272F8D
S1130960362F492F582FBD89AE89FF89E88D6B2F0B
S11309707A2F8F2F9E2F0E946005CF84D888E98814
S1130980FA880F900F9020E030E0A901C701B6016A
S11309900E94ED0A8823C4F482E00E94C60083E02A
S11309A00E94B9008F859889A989BA89BC01CD01B3
S11309B0905820E030E24CE954E40E943B0C0E9441
S11309C0590B79BD68BD26C020E030E0A901C701FC
S11309D0B6010E94370C1816ACF482E00E94B900EC
S11309E083E00E94C60020E030E24CE954E46F85C5
S11309F0788989899A890E943B0C0E94590B79BD98
S1130A0068BD08C082E00E94C60083E00E94C60060
S1130A1019BC18BCCB84DC84ED84FE8420E030E077
S1130A20A901C701B6010E94ED0A8823C4F486E037
S1130A300E94C60087E00E94B9008B859C85AD8525
S1130A40BE85BC01CD01905820E030E24CE954E46D
S1130A500E943B0C0E94590B7BBD6ABD26C020E05E
S1130A6030E0A901C701B6010E94370C1816ACF496
S1130A7086E00E94B90087E00E94C60020E030E2D0
S1130A804CE954E46B857C858D859E850E943B0CE6
S1130A900E94590B7BBD6ABD08C086E00E94C60057
S1130AA087E00E94C6001BBC1ABC1092A400152D3E
S1130AB001C0152D872D0E948203FDEF7F227DCE7C
S1130AC02F923F924F925F926F927F928F929F925A
S1130AD0AF92BF92CF92DF92EF92FF920F931F9348
S1130AE0CF93DF93CDB7DEB72E970FB6F894DEBF62
S1130AF00FBECDBF6B877C878D879E87322E232EBA
S1130B0049835A83270138019A86898620E030E098
S1130B1040E85FE3C801B7010E94370C18169CF047
S1130B2020E030E040E85FEBC801B7010E94ED0A25
S1130B3088238CF40F2E412C512CF0E86F2EFFEB00
S1130B407F2EF02D08C00F2E412C512CF0E86F2E73
S1130B50FFE37F2EF02D20E030E040E85FE3C601A4
S1130B60B5010E94370C18169CF020E030E040E8F4
S1130B705FEBC601B5010E94ED0A88238CF40F2EA9
S1130B80A12CB12CF0E8CF2EFFEBDF2EF02D08C006
S1130B900F2EA12CB12CF0E8CF2EFFE3DF2EF02D89
S1130BA08091820090918300A0918400B09185008F
S1130BB08D839E83AF83B88780938600909387004C
S1130BC0A0938800B0938900A3019201C601B501E6
S1130BD00E94880A2AE132E646E850E40E943B0C6F
S1130BE0962E872E8B839C83382F292F862F982D22
S1130BF0A32FB22F8093820090938300A09384004C
S1130C00B0938500A6019501C301B2010E94890A2F
S1130C1020E030E040E05FE30E943B0C762E672E3C
S1130C20582E492E862F962DA52DB42D80938A00FB
S1130C3090938B00A0938C00B0938D009B818C814A
S1130C40292D382D492F582F6D817E818F819885CC
S1130C500E94890A2AE037ED43E25BE30E943B0CE1
S1130C6020918E0030918F0040919000509191001E
S1130C700E94890AA62EB72EC82ED92EE62EF72E4C
S1130C80082F192F2BED3FE049EC50E40E94370C5C
S1130C9018167CF42BED3FE049EC50E46A2D7B2DD3
S1130CA08C2D9D2D0E94880AE62EF72E082F192FD1
S1130CB019C020E030E0A9016A2D7B2D8C2D9D2DDB
S1130CC00E94ED0A882374F42BED3FE049EC50E4D4
S1130CD06A2D7B2D8C2D9D2D0E94890AE62EF72EE0
S1130CE0082F192F8E2D9F2DA02FB12F80938E00AA
S1130CF090938F00A0939000B09391002BED3FE070
S1130D0049E450E46E2D7F2D802F912F0E94890A93
S1130D10F981EA81232D322D4F2F5E2F0E94ED0A97
S1130D2018168CF02BED3FE049EC50E4F981EA8190
S1130D30632D722D8F2F9E2F0E94880A362E272E08
S1130D4089839A8326C02BED3FE049E450E46E2D5D
S1130D507F2D802F912F0E94880A9B01AC01F9817D
S1130D60EA81632D722D8F2F9E2F0E94ED0A181693
S1130D7084F02BED3FE049EC50E4F981EA81632DE6
S1130D80722D8F2F9E2F0E94890A362E272E89833B
S1130D909A832E2D3F2D402F512FF981EA81632D07
S1130DA0722D8F2F9E2F0E94880AE62EF72E082F71
S1130DB0192F862F9F2DA02FB12F809392009093EF
S1130DC09300A0939400B093950028EE31EB49E78B
S1130DD050EC672D762D852D942D0E943B0C2B0114
S1130DE03C0124EF38ED4CE950E46B857C858D851E
S1130DF09E850E943B0C9B01AC01C301B2010E9481
S1130E00890A69837A83682E792EA62EB72EC82E76
S1130E10D92E21E237EA44E95FE36E2D7F2D802F3E
S1130E20912F0E943B0C1B012C0128E137EA44E17D
S1130E305FE3FB81EC81692D782D8F2F9E2F0E941B
S1130E403B0C9B01AC01C201B1010E94880A862EB1
S1130E50972EE82EF92E462E572E282E392E20E0D6
S1130E6030E0A9010E94370C88231CF001E010E057
S1130E7002C00FEF1FEF10939F0000939E0020E02D
S1130E8030E0A901B981AA816B2F7A2F862D972D85
S1130E900E94370C88232CF0A1E0B0E0BE83AD8320
S1130EA004C0EFEFFFEFFE83ED832D813E8130938D
S1130EB0A1002093A000B801882777FD8095982F82
S1130EC00E94870B6B837C83082F192F762F6C81EC
S1130ED0272F362F402F512F682D792D8E2D9F2DA2
S1130EE00E943B0C862E972EE82EF92E20E030E04F
S1130EF040E85FE30E94370C18168CF02DEC3CECB4
S1130F004CE45DE3682D792D8E2D9F2D0E94ED0A12
S1130F1018164CF0412C512C212C312C04C04B8040
S1130F205C80202E312E842D952DA22DB32D8093FF
S1130F309A0090939B00A0939C00B0939D00AD8178
S1130F40BE81BD01882777FD8095982F0E94870B6D
S1130F50862E972EE82EF92E762F272F392D4E2DFB
S1130F605F2DB981AA816B2F7A2F862D972D0E9430
S1130F703B0C20E030E040E85FE30E94370C181699
S1130F8024F4A82CB92CCE2CDF2C7B816C81272F48
S1130F90362F402F512F642D752D822D932D0E94B5
S1130FA03B0C9B01AC0160E070E080E89FE30E9491
S1130FB0880A662E772E082F192F282D392D4E2DAD
S1130FC05F2D6A2D7B2D8C2D9D2D0E943B0C262D93
S1130FD0372D402F512F0E94370C181674F4262DEC
S1130FE0372D402F512F682D792D8E2D9F2D0E9446
S1130FF03B0CA62EB72EC82ED92E5A2D4B2D8A2D3A
S11310009B2DAC2DBD2D8093960090939700A093BB
S11310109800B0939900252F342F4A2F5B2F642D0D
S1131020752D822D932D0E94890AEBA1FCA160836A
S1131030718382839383242D352D422D532D6A2D64
S11310407B2D8C2D9D2D0E94880AA985BA856D93D0
S11310507D938D939C931397EBA1FCA1C080D180C9
S1131060E280F38024EA30E74DE75FE3C701B6018D
S11310700E94370C1816ACF024EA30E74DE75FEB1A
S1131080C701B6010E94ED0A8823ACF40F2EF4EADE
S1131090CF2EF0E7DF2EFDE7EF2EFFEBFF2EF02D36
S11310A00AC00F2EF4EACF2EF0E7DF2EFDE7EF2E75
S11310B0FFE3FF2EF02DABA1BCA1CD92DD92ED920A
S11310C0FC921397E985FA85C080D180E280F38091
S11310D024EA30E74DE75FE3C701B6010E94370C0D
S11310E01816ACF024EA30E74DE75FEBC701B60110
S11310F00E94ED0A8823ACF40F2EF4EACF2EF0E719
S1131100DF2EFDE7EF2EFFEBFF2EF02D0AC00F2E92
S1131110F4EACF2EF0E7DF2EFDE7EF2EFFE3FF2EFC
S1131120F02DA985BA85CD92DD92ED92FC921397AC
S11311302E960FB6F894DEBF0FBECDBFDF91CF91D0
S11311401F910F91FF90EF90DF90CF90BF90AF90E1
S11311509F908F907F906F905F904F903F902F90D3
S113116008951F920F920FB60F9211248F9381E06E
S11311708093A4008091A2008F5F8093A20080914D
S1131180A2008A3029F481E08093A3001092A20087
S11311908F910F900FBE0F901F90189584E087BD1C
S11311A091EE96BD89BF92EA9FBD9BE59EBD9BE1F2
S11311B09EBD89BF089586EC80B98CEF81B98FEF0D
S11311C083B984E086BF0895E091EF00EF5FEF718B
S11311D0E093EF009091A5009F5F9093A500F0E04D
S11311E0E051FF4F80830895E0911001EF5FEF71AC
S11311F0E09310018091A50081508093A500F0E058
S1131200E051FF4F80810895E0911101EF5FEF718C
S1131210E0931101F0E0EE0FFF1FE155FF4F9183C2
S113122080830895E0911201EF5FEF71E093120162
S1131230F0E0EE0FFF1FE155FF4F8081918108958B
S11312401F920F920FB60F9211242F933F934F9337
S11312505F936F937F938F939F93AF93BF93EF931A
S1131260FF9381B1887F883289F168F4803141F13C
S113127020F4883009F077C023C0883139F18032F6
S113128009F071C00FC0883469F030F48033F1F094
S1131290803409F068C037C0803581F1883509F0A1
S11312A062C02CC0E0911001F0E0E051FF4F818159
S11312B0813E08F04FC08091A50081113CC051C00F
S11312C00E94F40883B985E886BF4DC08091A500CB
S11312D0882389F0E0911001F0E0E051FF4F818113
S11312E0803E18F085EA86BF3EC00E94F40883B9A8
S11312F085E886BF38C084E986BF35C00E941209DC
S113130023B1FC0120838091A500882389F0E0911A
S11313101001F0E0E051FF4F8181803E18F085EA32
S113132086BF21C00E94F40883B985E886BF1BC02C
S113133084E986BF18C00E94F408E0911001F0E02F
S1131340E051FF4F8181813E28F48091A5008111F5
S1131350F2CF07C08091A500882319F085EA86BFE3
S113136002C084E986BFFF91EF91BF91AF919F9135
S11313708F917F916F915F914F913F912F910F903A
S11313800FBE0F901F901895CF93DF93D62FC42FC5
S1131390F8940E94E4088D2F0E94E4088C2F0E9488
S11313A0E408789486B785EA86BFDF91CF910895E3
S11313B00F931F93CF93DF93182F062FEA01F8940E
S11313C081500E94E408802F0E94E408812F0E942B
S11313D0E408CE010E940409789486B785EA86BFA2
S11313E0DF91CF911F910F9108951F920F920FB625
S11313F00F9211248F93EF93FF938091A70088237A
S113140081F0E091AD00F091AE0081918CB9F09340
S1131410AE00E093AD008091A70081508093A700B7
S113142008C08FEF8CB91092AB0081E08093680004
S11314305698FF91EF918F910F900FBE0F901F90D0
S113144018951F920F920FB60F9211248F939F93AA
S1131450EF93FF938CB1A895803F69F4E091A600C7
S1131460F0E0E855FF4F90EF908391E09093AC004B
S11314701092A6001CC0813F79F41092A600E0915E
S1131480A600F0E0E855FF4F91EF90839091A600FD
S11314909F5F9093A6000BC0E091A600F0E0E85592
S11314A0FF4F80839091A6009F5F9093A600909138
S11314B0A600933029F491E09093AC001092A6001A
S11314C090916800913009F48CB9FF91EF919F914C
S11314D08F910F900FBE0F901F90189581E080930D
S11314E068001092AC001092A7001092A60086E843
S11314F080BD88ED8AB910BC87E689B92EE088E101
S113150090E00FB6F894A89581BD0FBE21BD089553
S11315105058BB27AA270ED070C161D130F066D1D4
S113152020F031F49F3F11F41EF456C10EF4E095FF
S1131530E7FB4CC1E92F72D180F3BA176207730736
S11315408407950718F071F49EF58AC10EF4E095AE
S11315500B2EBA2FA02D0B01B90190010C01CA0169
S1131560A0011124FF27591B99F0593F50F4503E14
S113157068F11A16F040A22F232F342F4427585F06
S1131580F3CF469537952795A795F0405395C9F71E
S11315907EF41F16BA0B620B730B840BBAF09150D6
S11315A0A1F0FF0FBB1F661F771F881FC2F70EC075
S11315B0BA0F621F731F841F48F487957795679548
S11315C0B795F7959E3F08F0B3CF9395880F08F031
S11315D09927EE0F979587950895D4D008F481E064
S11315E008950CD00AC102D140F0F9D030F021F4B2
S11315F05F3F19F0EBC0511134C1EEC00FD198F325
S11316009923C9F35523B1F3951B550BBB27AA277F
S113161062177307840738F09F5F5F4F220F331FF1
S1131620441FAA1FA9F333D00E2E3AF0E0E830D0BD
S113163091505040E695001CCAF729D0FE2F27D0C0
S1131640660F771F881FBB1F261737074807AB078E
S1131650B0E809F0BB0B802DBF01FF2793585F4F03
S11316602AF09E3F510568F0B1C0FBC05F3FECF328
S1131670983EDCF3869577956795B795F7959F5FC8
S1131680C9F7880F911D9695879597F90895E1E01C
S1131690660F771F881FBB1F621773078407BA077B
S11316A020F0621B730B840BBA0BEE1F88F7E095D6
S11316B00895BCD088F09F5790F0B92F9927B7515F
S11316C0A0F0D1F0660F771F881F991F1AF0BA9502
S11316D0C9F712C0B13081F0C3D0B1E00895C0C0E1
S11316E0672F782F8827B85F39F0B93FCCF38695F8
S11316F077956795B395D9F73EF490958095709555
S113170061957F4F8F4F9F4F0895E89409C097FBD1
S11317103EF490958095709561957F4F8F4F9F4FC4
S11317209923A9F0F92F96E9BB279395F695879508
S113173077956795B795F111F8CFFAF4BB0F11F4CB
S113174060FF1BC06F5F7F4F8F4F9F4F16C0882372
S113175011F096E911C0772321F09EE8872F762FA8
S113176005C0662371F096E8862F70E060E02AF0E9
S11317709A95660F771F881FDAF7880F96958795D5
S113178097F90895990F0008550FAA0BE0E8FEEFAA
S113179016161706E807F907C0F012161306E40731
S11317A0F50798F0621B730B840B950B39F40A262A
S11317B061F0232B242B252B21F408950A2609F408
S11317C0A140A6958FEF811D811D089597F99F670C
S11317D080E870E060E008959FEF80EC08950024B5
S11317E00A941616170618060906089500240A9482
S11317F012161306140605060895092E0394000C08
S113180011F4882352F0BB0F40F4BF2B11F460FF96
S113181004C06F5F7F4F8F4F9F4F089557FD9058BF
S1131820440F551F59F05F3F71F04795880F97FBA0
S1131830991F61F09F3F79F087950895121613065A
S11318401406551FF2CF4695F1DF08C01616170689
S11318501806991FF1CF86957105610508940895BE
S1131860E894BB2766277727CB0197F908958ADF89
S113187008F48FEF08950BD0C0CFB1DF28F0B6DFA6
S113188018F0952309F0A2CFA7CF1124EACFC6DF21
S1131890A0F3959FD1F3950F50E0551F629FF0017F
S11318A0729FBB27F00DB11D639FAA27F00DB11DD8
S11318B0AA1F649F6627B00DA11D661F829F222761
S11318C0B00DA11D621F739FB00DA11D621F839FE8
S11318D0A00D611D221F749F3327A00D611D231FBE
S11318E0849F600D211D822F762F6A2F11249F570C
S11318F050408AF0E1F088234AF0EE0FFF1FBB1F2F
S1131900661F771F881F91505040A9F79E3F5105CD
S113191070F05CCFA6CF5F3FECF3983EDCF3869586
S113192077956795B795F795E7959F5FC1F7FE2B78
S1131930880F911D9695879597F90895A1E21A2E1F
S1131940AA1BBB1BFD010DC0AA1FBB1FEE1FFF1F5F
S1131950A217B307E407F50720F0A21BB30BE40BAF
S1131960F50B661F771F881F991F1A9469F76095F6
S11319707095809590959B01AC01BD01CF010895B0
S1071980F894FFCF05
S10D1984FF03FF03FF03FF0301004C
S9030000FC
