S00E0000454C453534322E73726563A5
S11300000C942A000C9447000C9447000C9447006D
S11300100C9447000C9447000C9447000C94470040
S11300200C9447000C9499000C9447000C944700DE
S11300300C9447000C94FB000C9447000C94BE00F5
S11300400C9449000C9447000C9447000C9447000E
S11300500C94470011241FBECFE5D8E0DEBFCDBF0E
S113006010E0A0E6B0E0E6EEF2E002C005900D92EA
S1130070A036B107D9F720E0A0E6B0E001C01D9298
S1130080AC37B207E1F70E9489000C9471010C941B
S113009000001F920F920FB60F9211242F933F93DB
S11300A08F939F9387B1882391F0809162008F5F33
S11300B08093620084B195B1209160003091610019
S11300C0820F931F909361008093600011C0809110
S11300D065008F5F8093650084B195B120916300C2
S11300E030916400820F931F9093640080936300A7
S11300F097B181E0892787B99F918F913F912F9183
S11301000F900FBE0F901F9018958FEF87BB88BB81
S113011008950E9469010E94B4000E9485007894A9
S113012080916700809168008091690080916600E9
S1130130F7CF1F920F920FB60F9211248F9381E085
S113014080936C0080916A008F5F80936A00809135
S11301506A008A3019F481E080936B008F910F90CC
S11301600FBE0F901F90189584E087BD91EE96BD49
S113017092EA9FBD9BE19EBD89BF08951F920F9295
S11301800FB60F9211248F939F93EF93FF93809157
S11301907300882381F0E0917400F09175008191DF
S11301A08CB9F0937500E0937400809173008150D2
S11301B08093730017C080916D0090916E00019739
S11301C059F480917300811107C08FEF8CB910929C
S11301D06E0010926D0006C081E090E09093700074
S11301E080936F00FF91EF919F918F910F900FBEBD
S11301F00F901F9018951F920F920FB60F92112413
S11302002F938F939F93EF93FF932CB18091710061
S113021090917200892BD1F4822F805F8230B0F4E8
S1130220E0917100F0917200822F90E0EE0FFF1FB9
S1130230EA58FF4F918380838091710090917200FE
S11302400196909372008093710032C08091710086
S1130250909172000197B1F4E0917100F0917200F5
S1130260822F90E0EE0FFF1FEA58FF4F91838083A7
S11302708091710090917200019690937200809326
S1130280710016C08091710090917200029781F400
S1130290E0917100F0917200822F90E0EE0FFF1F49
S11302A0EA58FF4F9183808310927200109271007C
S11302B080916F0090917000019709F42CB9FF911F
S11302C0EF919F918F912F910F900FBE0F901F90E0
S11302D0189586E880BD88ED8AB910BC87E689B98F
S10902E00895F894FFCF1D
S9030000FC
