S00E0000454C453534322E73726563A5
S11300000C942A000C9447000C9447000C9447006D
S11300100C9447000C9447000C9447000C94470040
S11300200C9447000C94F1050C9447000C94470081
S11300300C9447000C945C070C9447000C94300714
S11300400C9449000C9447000C9447000C945B06F4
S11300500C94470011241FBECFE5D8E0DEBFCDBF0E
S113006010E0A0E6B0E0E4E6F3E102C005900D92F2
S1130070AA36B107D9F721E0AAE6B0E001C01D9283
S1130080AA30B207E1F70E9487010C94B0090C94DE
S113009000001F920F920FB60F9211242F933F93DB
S11300A08F939F9387B1882391F0809174008F5F21
S11300B08093740084B195B12091720030917300E3
S11300C0820F931F909373008093720011C08091EC
S11300D077008F5F8093770084B195B1209175008C
S11300E030917600820F931F909376008093750071
S11300F097B181E0892787B99F918F913F912F9183
S11301000F900FBE0F901F9018957F928F929F9221
S1130110AF92BF92CF92DF92EF92FF920F931F9311
S1130120CF93DF938C01EB01DB9B39C060917200AC
S11301307091730070907400C0906400D09065005A
S1130140E0906E00F0906F0080E090E00E949708CD
S11301504B015C01672D70E080E090E00E949708FD
S11301609B01AC01C501B4010E942F084B015C0145
S1130170B7FAB094B7F8B094B6016E197F0980E06D
S113018090E00E9497089B01AC01C501B4010E9454
S11301902F08F801608371838283938334C0609154
S11301A072007091730070907400C0906600D090DB
S11301B06700E0907000F090710080E090E00E9491
S11301C097084B015C01672D70E080E090E00E948D
S11301D097089B01AC01C501B4010E942F084B0193
S11301E05C01B6016E197F0980E090E00E949708D7
S11301F09B01AC01C501B4010E942F08F801608382
S1130200718382839383DA9B39C0809175009091C6
S1130210760090907700A0906000B090610000910B
S11302206A0010916B00BC0180E090E00E94970886
S11302306B017C01692D70E080E090E00E949708DA
S11302409B01AC01C701B6010E942F086B017C0120
S1130250F7FAF094F7F8F094B501601B710B80E0A5
S113026090E00E9497089B01AC01C701B6010E946F
S11302702F08688379838A839B8334C080917500B7
S11302809091760090907700A0906200B090630007
S113029000916C0010916D00BC0180E090E00E9420
S11302A097086B017C01692D70E080E090E00E946A
S11302B097089B01AC01C701B6010E942F086B018E
S11302C07C01B501601B710B80E090E00E949708EF
S11302D09B01AC01C701B6010E942F086883798392
S11302E08A839B83DF91CF911F910F91FF90EF90B1
S11302F0DF90CF90BF90AF909F908F907F900895A4
S11303008FEF87BB88BB0895809588BB0895CF93F2
S1130310DF93CDB7DEB76B970FB6F894DEBF0FBE91
S1130320CDBF0E94AC070E940C060E9480010E946F
S11303301606789419821A821B821C821D821E82E0
S11303401F82188619861A861B861C861D861E86A1
S11303501F86188A198A1A8A4AE061E080EE0E9490
S1130360FF064AE061E082EE0E94FF064DE262E091
S113037080EE0E94FF064DE262E082EE0E94FF06DC
S11303801D8A6894332436F81B8E1A8E80E022244A
S113039023949E01215F3F4F3C8B2B8B01C0822D08
S11303A0811109C0DE9BFCCF832D8F7B689433249D
S11303B037F8382A02C0813099F7DF9B08C0832DB3
S11303C08F776894332436F8382A80E0E9CF809117
S11303D0A3008823A1F0EFE9F0E08081803F59F089
S11303E08081813F41F4E0EAF0E0F081FA8FE1EAB4
S11303F0F0E0F081FB8F22E0322A1092A30080917A
S11304009A008823C1F13D893130D9F441E560E097
S113041080EE0E94FF06832D877F6894332435F88D
S1130420382AAE014E5F5F4F62E083EE0E941307ED
S1130430AE014F5F5F4F63E083EE0E9413071D8A96
S11304401AC041E560E082EE0E94FF06832D8F7D95
S11304506894332433F8382AAE014E5F5F4F62E06C
S113046081EE0E941307AE014F5F5F4F63E081EEA0
S11304700E9413072D8A80919B00882309F456C09B
S1130480BE01695F7F4FCE0103960E948500AB8059
S1130490BC80CD80DE804F80588469847A84EB8D63
S11304A06E2F70E080E090E00E9497089B01AC0101
S11304B00E94C70720E030E044EB53E40E942F0879
S11304C09B01AC010E94C7072BED3FE049E450E4D7
S11304D00E944D096E8B7F8B888F998FFA8D6F2FB9
S11304E070E080E090E00E94970820E030E048EC63
S11304F052E40E94C60720E030E048EC52E40E9437
S11305002F082C892F933B893F930F2EFBE08F2ECE
S1130510912CF02D8C0E9D1E830172012E893F8932
S1130520488D598D0E94A0020F900F908091780001
S1130530882309F434CF832D0E948401822D30CF87
S11305402F923F924F925F926F927F928F929F92DF
S1130550AF92BF92CF92DF92EF92FF920F931F93CD
S1130560CF93DF93CDB7DEB72E970FB6F894DEBFE7
S11305700FBECDBF6B877C878D879E87322E232E3F
S113058049835A83270138019A86898620E030E01E
S113059040E85FE3C801B7010E94490918169CF0BE
S11305A020E030E040E85FEBC801B7010E942B086F
S11305B088238CF40F2E412C512CF0E86F2EFFEB86
S11305C07F2EF02D08C00F2E412C512CF0E86F2EF9
S11305D0FFE37F2EF02D20E030E040E85FE3C6012A
S11305E0B5010E94490918169CF020E030E040E86B
S11305F05FEBC601B5010E942B0888238CF40F2EF3
S1130600A12CB12CF0E8CF2EFFEBDF2EF02D08C08B
S11306100F2EA12CB12CF0E8CF2EFFE3DF2EF02D0E
S11306208091790090917A00A0917B00B0917C0038
S11306308D839E83AF83B88780937D0090937E00E3
S1130640A0937F00B0938000A3019201C601B5017D
S11306500E94C6072AE132E646E850E40E944D09AA
S1130660962E872E8B839C83382F292F862F982DA7
S1130670A32FB22F8093790090937A00A0937B00EC
S1130680B0937C00A6019501C301B2010E94C70783
S113069020E030E040E05FE30E944D09762E672EB3
S11306A0582E492E862F962DA52DB42D809381008A
S11306B090938200A0938300B09384009B818C81EB
S11306C0292D382D492F582F6D817E818F81988552
S11306D00E94C7072AE037ED43E25BE30E944D091D
S11306E020918500309186004091870050918800C8
S11306F00E94C707A62EB72EC82ED92EE62EF72E97
S1130700082F192F2BED3FE049EC50E40E944909D2
S113071018167CF42BED3FE049EC50E46A2D7B2D58
S11307208C2D9D2D0E94C607E62EF72E082F192F1B
S113073019C020E030E0A9016A2D7B2D8C2D9D2D60
S11307400E942B08882374F42BED3FE049EC50E41D
S11307506A2D7B2D8C2D9D2D0E94C707E62EF72E2A
S1130760082F192F8E2D9F2DA02FB12F8093850038
S113077090938600A0938700B09388002BED3FE010
S113078049E450E46E2D7F2D802F912F0E94C707DE
S1130790F981EA81232D322D4F2F5E2F0E942B08E1
S11307A018168CF02BED3FE049EC50E4F981EA8116
S11307B0632D722D8F2F9E2F0E94C607362E272E53
S11307C089839A8326C02BED3FE049E450E46E2DE3
S11307D07F2D802F912F0E94C6079B01AC01F981C8
S11307E0EA81632D722D8F2F9E2F0E942B081816DD
S11307F084F02BED3FE049EC50E4F981EA81632D6C
S1130800722D8F2F9E2F0E94C707362E272E898385
S11308109A832E2D3F2D402F512FF981EA81632D8C
S1130820722D8F2F9E2F0E94C607E62EF72E082FBB
S1130830192F862F9F2DA02FB12F8093890090937D
S11308408A00A0938B00B0938C0028EE31EB49E72B
S113085050EC672D762D852D942D0E944D092B018A
S11308603C0124EF38ED4CE950E46B857C858D85A3
S11308709E850E944D099B01AC01C301B2010E94F7
S1130880C70769837A83682E792EA62EB72EC82EC1
S1130890D92E21E237EA44E95FE36E2D7F2D802FC4
S11308A0912F0E944D091B012C0128E137EA44E1F4
S11308B05FE3FB81EC81692D782D8F2F9E2F0E94A1
S11308C04D099B01AC01C201B1010E94C607862EED
S11308D0972EE82EF92E462E572E282E392E20E05C
S11308E030E0A9010E94490988231CF001E010E0CE
S11308F002C00FEF1FEF109396000093950020E0C5
S113090030E0A901B981AA816B2F7A2F862D972D0A
S11309100E94490988232CF0A1E0B0E0BE83AD8396
S113092004C0EFEFFFEFFE83ED832D813E81309312
S1130930980020939700B801882777FD8095982F19
S11309400E9499086B837C83082F192F762F6C8162
S1130950272F362F402F512F682D792D8E2D9F2D27
S11309600E944D09862E972EE82EF92E20E030E0C5
S113097040E85FE30E94490918168CF02DEC3CEC2A
S11309804CE45DE3682D792D8E2D9F2D0E942B085C
S113099018164CF0412C512C212C312C04C04B80C6
S11309A05C80202E312E842D952DA22DB32D809385
S11309B0910090939200A0939300B0939400AD8122
S11309C0BE81BD01882777FD8095982F0E949908E4
S11309D0862E972EE82EF92E762F272F392D4E2D81
S11309E05F2DB981AA816B2F7A2F862D972D0E94B6
S11309F04D0920E030E040E85FE30E944909181601
S1130A0024F4A82CB92CCE2CDF2C7B816C81272FCD
S1130A10362F402F512F642D752D822D932D0E943A
S1130A204D099B01AC0160E070E080E89FE30E9407
S1130A30C607662E772E082F192F282D392D4E2DF7
S1130A405F2D6A2D7B2D8C2D9D2D0E944D09262D09
S1130A50372D402F512F0E944909181674F4262D62
S1130A60372D402F512F682D792D8E2D9F2D0E94CB
S1130A704D09A62EB72EC82ED92E5A2D4B2D8A2DB0
S1130A809B2DAC2DBD2D80938D0090938E00A09353
S1130A908F00B0939000252F342F4A2F5B2F642DA5
S1130AA0752D822D932D0E94C707EBA1FCA16083B5
S1130AB0718382839383242D352D422D532D6A2DEA
S1130AC07B2D8C2D9D2D0E94C607A985BA856D931B
S1130AD07D938D939C931397EBA1FCA1C080D1804F
S1130AE0E280F38024EA30E74DE75FE3C701B60113
S1130AF00E9449091816ACF024EA30E74DE75FEB91
S1130B00C701B6010E942B088823ACF40F2EF4EA27
S1130B10CF2EF0E7DF2EFDE7EF2EFFEBFF2EF02DBB
S1130B200AC00F2EF4EACF2EF0E7DF2EFDE7EF2EFA
S1130B30FFE3FF2EF02DABA1BCA1CD92DD92ED928F
S1130B40FC921397E985FA85C080D180E280F38016
S1130B5024EA30E74DE75FE3C701B6010E94490983
S1130B601816ACF024EA30E74DE75FEBC701B60195
S1130B700E942B088823ACF40F2EF4EACF2EF0E762
S1130B80DF2EFDE7EF2EFFEBFF2EF02D0AC00F2E18
S1130B90F4EACF2EF0E7DF2EFDE7EF2EFFE3FF2E82
S1130BA0F02DA985BA85CD92DD92ED92FC92139732
S1130BB02E960FB6F894DEBF0FBECDBFDF91CF9156
S1130BC01F910F91FF90EF90DF90CF90BF90AF9067
S1130BD09F908F907F906F905F904F903F902F9059
S1130BE008951F920F920FB60F9211248F9381E0F4
S1130BF080939B00809199008F5F809399008091EE
S1130C0099008A3019F481E080939A008F910F90B3
S1130C100FBE0F901F90189584E087BD91EE96BD8E
S1130C2092EA9FBD9BE19EBD89BF089586EC80B981
S1130C308CEF81B98FEF83B984E086BF0895E0918A
S1130C40E600EF5FEF71E093E60090919C009F5FF8
S1130C5090939C00F0E0E951FF4F80830895E09168
S1130C600701EF5FEF71E093070180919C008150D1
S1130C7080939C00F0E0E951FF4F80810895E0915A
S1130C800801EF5FEF71E0930801F0E0EE0FFF1F42
S1130C90EA55FF4F918380830895E0910901EF5F46
S1130CA0EF71E0930901F0E0EE0FFF1FEA55FF4FEB
S1130CB08081918108951F920F920FB60F92112493
S1130CC02F933F934F935F936F937F938F939F9350
S1130CD0AF93BF93EF93FF9381B1887F883289F1FB
S1130CE068F4803141F120F4883009F077C023C0E2
S1130CF0883139F1803209F071C00FC0883469F04D
S1130D0030F48033F1F0803409F068C037C08035A6
S1130D1081F1883509F062C02CC0E0910701F0E050
S1130D20E951FF4F8181813E08F04FC080919C00C2
S1130D3081113CC051C00E942F0683B985E886BF4B
S1130D404DC080919C00882389F0E0910701F0E078
S1130D50E951FF4F8181803E18F085EA86BF3EC08D
S1130D600E942F0683B985E886BF38C084E986BF10
S1130D7035C00E944D0623B1FC01208380919C0064
S1130D80882389F0E0910701F0E0E951FF4F818168
S1130D90803E18F085EA86BF21C00E942F0683B9E1
S1130DA085E886BF1BC084E986BF18C00E942F0651
S1130DB0E0910701F0E0E951FF4F8181813E28F481
S1130DC080919C008111F2CF07C080919C00882300
S1130DD019F085EA86BF02C084E986BFFF91EF91CE
S1130DE0BF91AF919F918F917F916F915F914F913F
S1130DF03F912F910F900FBE0F901F901895CF9396
S1130E00DF93D62FC42FF8940E941F068D2F0E94C3
S1130E101F068C2F0E941F06789486B785EA86BF2A
S1130E20DF91CF9108950F931F93CF93DF93182FE2
S1130E30062FEA01F89481500E941F06802F0E9419
S1130E401F06812F0E941F06CE010E943F06789440
S1130E5086B785EA86BFDF91CF911F910F910895E0
S1130E601F920F920FB60F9211248F93EF93FF935B
S1130E7080919E00882381F0E091A400F091A50068
S1130E8081918CB9F093A500E093A40080919E0019
S1130E90815080939E0008C08FEF8CB91092A200FD
S1130EA081E0809368005698FF91EF918F910F90A5
S1130EB00FBE0F901F9018951F920F920FB60F92AE
S1130EC011248F939F93EF93FF938CB1A895803F48
S1130ED079F490919D0091111DC0E0919D00F0E086
S1130EE0E156FF4F90EF908391E09093A3001DC0D3
S1130EF0813F81F490919D0091110CC0E0919D007F
S1130F00F0E0E156FF4F908190919D009F5F909398
S1130F109D000BC0E0919D00F0E0E156FF4F8083FF
S1130F2090919D009F5F90939D0090919D009330C0
S1130F3029F491E09093A30010929D009091680091
S1130F40913009F48CB9FF91EF919F918F910F909B
S1130F500FBE0F901F90189581E080936800109247
S1130F60A30010929E0010929D0086E880BD88ED3B
S1130F708AB910BC87E689B92EE088E190E00FB603
S1130F80F894A89581BD0FBE21BD08955058BB2784
S1130F90AA270ED044C135D130F03AD120F031F433
S1130FA09F3F11F41EF42AC10EF4E095E7FB20C123
S1130FB0E92F46D180F3BA176207730784079507B0
S1130FC018F071F49EF55EC10EF4E0950B2EBA2F65
S1130FD0A02D0B01B90190010C01CA01A00111243B
S1130FE0FF27591B99F0593F50F4503E68F11A16E7
S1130FF0F040A22F232F342F4427585FF3CF469578
S113100037952795A795F0405395C9F77EF41F1699
S1131010BA0B620B730B840BBAF09150A1F0FF0F63
S1131020BB1F661F771F881FC2F70EC0BA0F621F4F
S1131030731F841F48F4879577956795B795F7953F
S11310409E3F08F0B3CF9395880F08F09927EE0FD1
S1131050979587950895A8D008F481E008950CD059
S1131060DEC0D6D040F0CDD030F021F45F3F19F08F
S1131070BFC0511108C1C2C0E3D098F39923C9F38A
S11310805523B1F3951B550BBB27AA27621773078A
S1131090840738F09F5F5F4F220F331F441FAA1F3E
S11310A0A9F333D00E2E3AF0E0E830D091505040FE
S11310B0E695001CCAF729D0FE2F27D0660F771FAC
S11310C0881FBB1F261737074807AB07B0E809F08E
S11310D0BB0B802DBF01FF2793585F4F2AF09E3F23
S11310E0510568F085C0CFC05F3FECF3983EDCF358
S11310F0869577956795B795F7959F5FC9F7880F9C
S1131100911D9695879597F90895E1E0660F771FED
S1131110881FBB1F621773078407BA0720F0621B7E
S1131120730B840BBA0BEE1F88F7E0950895E894CF
S113113009C097FB3EF490958095709561957F4F1B
S11311408F4F9F4F9923A9F0F92F96E9BB279395C9
S1131150F695879577956795B795F111F8CFFAF4D9
S1131160BB0F11F460FF1BC06F5F7F4F8F4F9F4F0A
S113117016C0882311F096E911C0772321F09EE868
S1131180872F762F05C0662371F096E8862F70E0CE
S113119060E02AF09A95660F771F881FDAF7880FA8
S11311A09695879597F90895990F0008550FAA0BFE
S11311B0E0E8FEEF16161706E807F907C0F0121666
S11311C01306E407F50798F0621B730B840B950B69
S11311D039F40A2661F0232B242B252B21F40895BE
S11311E00A2609F4A140A6958FEF811D811D08955B
S11311F097F99F6780E870E060E008959FEF80ECC6
S1131200089500240A941616170618060906089568
S113121000240A9412161306140605060895092ECE
S11312200394000C11F4882352F0BB0F40F4BF2B3D
S113123011F460FF04C06F5F7F4F8F4F9F4F08957D
S113124057FD9058440F551F59F05F3F71F0479573
S1131250880F97FB991F61F09F3F79F08795089558
S1131260121613061406551FF2CF4695F1DF08C077
S1131270161617061806991FF1CF86957105610594
S113128008940895E894BB2766277727CB0197F93C
S113129008958ADF08F48FEF08950BD0C0CFB1DF33
S11312A028F0B6DF18F0952309F0A2CFA7CF1124B8
S11312B0EACFC6DFA0F3959FD1F3950F50E0551FF9
S11312C0629FF001729FBB27F00DB11D639FAA2797
S11312D0F00DB11DAA1F649F6627B00DA11D661FE6
S11312E0829F2227B00DA11D621F739FB00DA11D07
S11312F0621F839FA00D611D221F749F3327A00DC1
S1131300611D231F849F600D211D822F762F6A2F5C
S113131011249F5750408AF0E1F088234AF0EE0FE1
S1131320FF1FBB1F661F771F881F91505040A9F7EE
S11313309E3F510570F05CCFA6CF5F3FECF3983E23
S1131340DCF3869577956795B795F795E7959F5F55
S1131350C1F7FE2B880F911D9695879597F90895EF
S1071360F894FFCF2B
S10D1364FFFFFFFFFFFFFFFF010082
S9030000FC
